S0100000626B6F6E736F6C652E73726563B7
S11300000C942A000C9447000C9447000C9447006D
S11300100C9447000C9447000C9447000C94470040
S11300200C9447000C9447000C9447000C94470030
S11300300C9447000C9447000C9447000C94470020
S11300400C9447000C9447000C9447000C94470010
S11300500C94470011241FBECFE5D8E0DEBFCDBF0E
S113006010E0A0E6B0E0E2E1F6E002C005900D92F7
S1130070A636B107D9F720E0A6E6B0E001C01D928C
S1130080A13BB207E1F70E94F0010C9407030C9422
S11300900000CF93DF9380E090E005C0FC01E959B4
S11300A0FF4F1082019688309105C4F320E030E0C0
S11300B017C0D901AA0FBB1FAF58BF4FEC91F0E096
S11300C081E090E011960C9002C0880F991F0A9469
S11300D0E2F7E959FF4F9081892B80832F5F3F4FCF
S11300E08091650090E0281739071CF3AFE6B0E073
S11300F0EC91F0E081E090E011960C9002C0880F42
S1130100991F0A94E2F7E959FF4F9081892B808364
S1130110C0E0D0E009C0FE01E959FF4F60818C2F97
S11301208F5F0E94BC012196C830D105A4F3DF91F2
S1130130CF9108950F931F93CF93DF938C01EB011D
S11301400E949402BE01601B710B6F5F7F4F0E947F
S11301502002800F911FDF91CF911F910F9108957D
S1130160CF93DF9367E070E080E090E00E949A0014
S1130170CFE6D0E0888367E070E080E090E00E9402
S11301809A00898320E030E014C0F901EE0FFF1FCC
S1130190EF58FF4F408190916F00491308C0F90157
S11301A0EE0FFF1FEF58FF4F9181891759F02F5F12
S11301B03F4F4091650050E02417350734F381E048
S11301C090E002C080E090E0892B61F2DF91CF9152
S11301D0089521E013C0422F50E0FA01EE0FFF1FF3
S11301E0EF58FF4F3081831308C0440F551FFA01A5
S11301F0EF58FF4F3181931739F02F5F309165002D
S1130200231748F380E0089581E008950F931F9326
S1130210CF93DF93C091710080916600D0E0C80F46
S1130220D11D2896C770D078DD2324F42197C86F98
S1130230DF6F2196DC2F209172008091640030E002
S1130240280F311D285F3F4F27703078332334F453
S113025021503109286F3F6F2F5F3F4F022F122F1C
S11302608C2F922F0E94E9008823A9F083E08093C9
S11302706500E1E7F0E0808394E0918382838383E7
S1130280848382E0858381E0809366001092640019
S11302900E94B0002BC040916500842F90E012C0F2
S11302A09C0121503109880F991FFC01EF58FF4F21
S11302B0D901AA0FBB1FAF58BF4F8D919C91918359
S11302C08083C901181619065CF3E1E7F0E0C083E6
S11302D0118380916F00D81309C0809170000813B6
S11302E005C04F5F409365000E94B000DF91CF913D
S11302F01F910F910895989903C08FEF9FEF02C04B
S113030080E090E0999B02C081E090E09A9B02C05B
S113031082E090E09B9B02C083E090E0009731F480
S11303208FEF8093660010926400089581309105E8
S113033031F4109266008FEF809364000895823048
S1130340910531F41092660081E080936400089571
S1130350039729F481E08093660010926400089565
S1130360CF93C1E005C060E08C2F0E94C101CF5F34
S1130370C930C8F3CF910895893010F40E94C101A7
S11303800895CF93C62F98B39F7E98BB0E941C02FA
S11303908C2F0E941C0288B3806188BBCF91089582
S11303A0CF9360E08FE00E94C10161E08CE00E9485
S11303B0C10167E08BE00E94C10168E08AE00E940D
S11303C0C10160E089E00E94C101C1E005C060E0B4
S11303D08C2F0E94C101CF5FC930C8F3CF9108951B
S11303E014BA0E9416020E94D001E1E7F0E083E013
S11303F0808395E09183828394E0938384838583CF
S1130400809365000E94B0000E94B0010E947B01AD
S11304100E9406010E9449002FEF83EC99E02150CD
S113042080409040E1F700C00000EECF87B3806BBE
S113043087BB81E58DB908958FB9779BFECF089569
S113044097FB072E16F4009407D077FD09D00E947D
S1130450340207FC05D03EF4909581959F4F089592
S1130460709561957F4F0895AA1BBB1B51E107C08E
S1130470AA1FBB1FA617B70710F0A61BB70B881F30
S1130480991F5A95A9F780959095BC01CD010895BF
S11304908F929F92AF92BF92CF92DF92EF92FF9290
S11304A0CF93DF93EC01688179818A819B81611507
S11304B071058105910521F464E279ED8BE597E0FE
S11304C02DE133EF41E050E00E94A40249015A01BA
S11304D09B01AC01A7EAB1E40E94C3026B017C0159
S11304E0ACEEB4EFA50194010E94D102DC01CB0172
S11304F08C0D9D1DAE1DBF1DB7FF03C00197A10943
S1130500B04888839983AA83BB839F77DF91CF9177
S1130510FF90EF90DF90CF90BF90AF909F908F901F
S113052008950E944802089580E690E00E944802DF
S11305300895A0E0B0E08093600090936100A093E0
S11305406200B09363000895052E97FB1EF4009497
S11305500E94BB0257FD07D00E94D60207FC03D0BD
S11305604EF40C94BB0250954095309521953F4F25
S11305704F4F5F4F089590958095709561957F4F8B
S11305808F4F9F4F08950E94F802A59F900DB49F2E
S1130590900DA49F800D911D11240895B7FF0C9414
S11305A0C3020E94C302821B930B0895A1E21A2E78
S11305B0AA1BBB1BFD010DC0AA1FBB1FEE1FFF1F03
S11305C0A217B307E407F50720F0A21BB30BE40B53
S11305D0F50B661F771F881F991F1A9469F760959A
S11305E07095809590959B01AC01BD01CF01089554
S11305F0A29FB001B39FC001A39F700D811D112460
S1130600911DB29F700D811D1124911D0895F894C0
S1050610FFCF16
S1090612010000000103D9
S9030000FC
