:100000000C9434000C9451000C9451000C94510049
:100010000C9451000C9451000C9451000C9451001C
:100020000C9451000C9451000C9451000C9451000C
:100030000C9451000C9451000C9451000C945100FC
:100040000C9451000C9451000C9451000C945100EC
:100050000C9451000C9451000C9451000C945100DC
:100060000C9451000C94510011241FBECFEFD8E026
:10007000DEBFCDBF11E0A0E0B1E0E2EEFCE002C0E7
:1000800005900D92A434B107D9F721E0A4E4B1E0C2
:1000900001C01D92A639B207E1F70E9445050C94F4
:1000A0006F060C940000CF93DF9380E090E005C0D2
:1000B000FC01EA5BFE4F1082019688309105C4F383
:1000C00020E030E017C0D901AA0FBB1FA05BBE4FD4
:1000D000EC91F0E081E090E011960C9002C0880F66
:1000E000991F0A94E2F7EA5BFE4F9081892B808387
:1000F0002F5F3F4F8091050190E0281739071CF3CF
:10010000AEE4B1E0EC91F0E081E090E011960C906B
:1001100002C0880F991F0A94E2F7EA5BFE4F9081B4
:10012000892B8083C0E0D0E009C0FE01EA5BFE4F6E
:1001300060818C2F8F5F0E9428042196C830D105E2
:10014000A4F3DF91CF910895CF9380E006C0E82F0C
:10015000F0E0EA5BFE4F10828F5F8830C0F380E0F2
:100160001DC090919301282F30E0290F311D2830B8
:1001700031059CF4E0919201F0E047E050E0421B31
:10018000530B21E030E002C0220F331F4A95E2F703
:10019000EA5BFE4F9081292B20838F5F833008F329
:1001A000A4E9B1E0EC91F0E011968C9127E030E009
:1001B000281B310981E090E002C0880F991F2A9521
:1001C000E2F7EA5BFE4F9081892B8083C0E009C093
:1001D000EC2FF0E0EA5BFE4F6081CF5F8C2F0E9436
:1001E0002804C830A8F3CF910895CF9340E050E0A1
:1001F00018C081E090E0022E02C0880F991F0A9477
:10020000E2F7FA01EA5BFE4F9081892B80832F5F32
:100210003F4F02C020E030E02830310554F34F5FFB
:100220005F4F48305105B4F3C0E009C0EC2FF0E057
:10023000EA5BFE4F6081CF5F8C2F0E942804C8309C
:10024000A8F38FE59AEE0197F1F700C000000E9435
:100250001C048FE59AEE0197F1F700C00000C0E0A2
:1002600009C0EC2FF0E0EA5BFE4F6081CF5F8C2F7E
:100270000E942804C830A8F38FE59AEE0197F1F7A1
:1002800000C000000E941C04CF9108951F93CF93DB
:10029000DF93CDB7DEB728970FB6F894DEBF0FBE59
:1002A000CDBF88E0E9E0F1E0DE01119601900D920A
:1002B0008A95E1F710E00BC0E1E0F0E0EC0FFD1FE4
:1002C000E10FF11D60811F5F812F0E94280418300B
:1002D00098F328960FB6F894DEBF0FBECDBFDF911E
:1002E000CF911F9108951F93CF93DF93CDB7DEB7C2
:1002F00028970FB6F894DEBF0FBECDBF88E0E1E1CE
:10030000F1E0DE01119601900D928A95E1F710E07F
:100310000BC0E1E0F0E0EC0FFD1FE10FF11D60818B
:100320001F5F812F0E942804183098F328960FB67B
:10033000F894DEBF0FBECDBFDF91CF911F9108951E
:100340000F931F93CF93DF938C01EB010E94FC0569
:10035000BE01601B710B6F5F7F4F0E948805800F8D
:10036000911FDF91CF911F910F910895CF93DF934C
:1003700067E070E080E090E00E94A001CEE4D1E070
:10038000888367E070E080E090E00E94A0018983AC
:1003900020E030E014C0F901EE0FFF1FE05BFE4FDC
:1003A000408190914E01491308C0F901EE0FFF1FE3
:1003B000E05BFE4F9181891759F02F5F3F4F4091CD
:1003C000050150E02417350734F381E090E002C0C6
:1003D00080E090E0892B61F2DF91CF91089521E0D8
:1003E00024C0422F50E0FA01EE0FFF1FE05BFE4FEA
:1003F0003081831319C0440F551FFA01E05BFE4F93
:100400003181931311C00E9473012FEF83EF91E0AC
:10041000215080409040E1F700C000000E94F500AC
:100420000E94D40381E008952F5F309105012317C6
:10043000C0F280E008950F931F93CF93DF93C09194
:10044000500180914401D0E0C80FD11D2896C7709B
:10045000D078DD2324F42197C86FDF6F2196DC2F3D
:10046000209151018091040130E0280F311D285F57
:100470003F4F27703078332334F421503109286FEF
:100480003F6F2F5F3F4F022F122F8C2F922F0E9412
:10049000EF018823A9F083E080930501E0E5F1E016
:1004A000808394E0918382838383848382E0858345
:1004B0001092440181E0809304010E94B6012BC098
:1004C00040910501842F90E012C09C012150310918
:1004D000880F991FFC01E05BFE4FD901AA0FBB1FDB
:1004E000A05BBE4F8D919C9191838083C9011816AA
:1004F00019065CF3E0E5F1E0C083118380914E01C1
:10050000D81309C080914F01081305C04F5F409375
:1005100005010E94B601DF91CF911F910F910895BF
:100520000E94FC0587709078992324F40197886FC6
:100530009F6F019608950E94FC0563E070E00E94A1
:10054000880581500895CF93DF93E2E9F1E087E0D9
:10055000808384E08183C4E9D1E018820E94900204
:10056000898381E0809390010E949B028093910196
:10057000DF91CF91089580910401823041F4809100
:100580009301882369F081508093930109C08130E1
:1005900039F480919301853018F48F5F8093930133
:1005A00010920401089580919401883088F00E948F
:1005B00073012FEF83EF91E0215080409040E1F7ED
:1005C00000C000000E94F5000E94D4030E94A30214
:1005D0000895E4E9F1E0908180919001980F818184
:1005E00020919101820F2AF421952093910180E0BE
:1005F00006C0883024F021952093910187E099234B
:1006000024F491E09093900190E0973039F5209197
:100610009301263018F5482F082E000C550B30E0BA
:1006200042175307DCF0B9016E5F7F4F64177507FF
:10063000ACF09FEF909390014217530721F49093F1
:10064000910196E00BC04617570729F491E090936B
:10065000910196E003C01092910196E0E4E9F1E087
:10066000908381830895CF93DF930E94BB020E9401
:10067000E9020E94D3020E94A400C0E0D0E003C0BF
:100680000E9484032196CA30D105D4F3DF91CF9123
:10069000089586B18F70909108018917A1F1809318
:1006A000080180914401482F50910401309B09C0FA
:1006B000319B0AC0329B0AC0339925C060E041E0FB
:1006C00007C060E04FEF04C061E002C06FEF40E0A0
:1006D00090E0919581959109242F042E000C330B05
:1006E0002817390761F4852F90E09195819591093C
:1006F000262F062E000C330B2817390721F04093C4
:10070000440160930401089586B1867090910701B9
:1007100089130BC090914501933020F49F5F909313
:10072000450105C08093060102C0109245018093E7
:10073000070180914501833080F08091060181FDA1
:1007400004C082E080930401089582FD04C081E02A
:10075000809304010895109204010895E0E8F0E008
:1007600080818068808389E080938100F093890094
:10077000E09388000895E0E8F0E080818F7780833F
:1007800085B18D7F85B9089584B1826084B981E097
:100790008093800088E080938100109289001092FD
:1007A00088000E94BB0308950E94AE032FEF81EEE4
:1007B00094E0215080409040E1F700C000000E948A
:1007C000BB032FEF80E792E0215080409040E1F79B
:1007D00000C000000E94AE032FEF80E792E021509E
:1007E00080409040E1F700C000000E94BB030895E4
:1007F0000E94AE032FEF80E792E0215080409040AE
:10080000E1F700C000000E94BB032FEF80E792E0F9
:10081000215080409040E1F700C000000E94AE03EC
:100820002FEF81EE94E0215080409040E1F700C02E
:1008300000000E94BB030895CF93C1E005C060E0B3
:100840008C2F0E94CC04CF5FC930C8F3CF9108959C
:10085000893010F40E94CC0408959BB19F709BB91D
:100860009BB1807F982B9BB98BB184608BB985E05D
:100870008A95F1F700008BB18B7F8BB98FE891E0FF
:100880000197F1F700C000000895CF93C82F8BB1F6
:100890008E7F8BB98BB18D7F8BB98C2F0E942D04ED
:1008A0008C2F8295807F0E942D04CF910895CF9345
:1008B000C82F8BB181608BB98BB18D7F8BB98C2F99
:1008C0000E942D048C2F8295807F0E942D04CF9151
:1008D00008958AB18FEF8AB92FEF89EF90E0215008
:1008E00080409040E1F700C0000080E30E942D04AA
:1008F0008FE19EE40197F1F700C0000080E30E94C1
:100900002D048FE891E00197F1F700C0000080E32B
:100910000E942D048FE891E00197F1F700C00000DC
:1009200080E20E942D048FE891E00197F1F700C06A
:10093000000088E20E9445048CE00E94450486E0A5
:100940000E94450481E00E9445048FE39FE10197E6
:10095000F1F700C000000895CF93DF93EC0180E829
:100960000E94450403C021960E945704888181118A
:10097000FACFDF91CF910895CF93DF93EC0180EC14
:100980000E94450403C021960E945704888181116A
:10099000FACFDF91CF910895CF93C62F95B19B7F6A
:1009A00095B90E9483058C2F0E94830585B18460D0
:1009B00085B9CF910895CF9360E08FE00E94CC0479
:1009C00061E08CE00E94CC0467E08BE00E94CC04E4
:1009D00068E08AE00E94CC0460E089E00E94CC04D8
:1009E000C1E005C060E08C2F0E94CC04CF5FC9300D
:1009F000C8F3CF910895E0E5F1E083E0808395E0CE
:100A00009183828394E0938384838583809305011B
:100A10001092440181E0809304010E94B6010E947B
:100A2000F5000E94F8030E941C040E9449030E94E2
:100A30001B020E9453008FE39CE90197F1F700C06D
:100A40000000F1CF0E94A3020E94F5000E94F8036B
:100A50000E941C04C0E0D0E003C00E9484032196E1
:100A6000C431D105D4F30E943303C0E0D0E003C009
:100A70000E9484032196C431D105D4F38FE39CE90D
:100A80000197F1F700C00000E3CF17B88FEF88B9E6
:100A90000E947D050E94DB040E94C4030E94690439
:100AA00089E191E00E94AC048FE191E00E94BC04D6
:100AB000109204010E9446010E9484038091040167
:100AC0008823D1F3823051F489E191E00E94AC0493
:100AD0008BE291E00E94BC040E94FB04813051F43F
:100AE00088E391E00E94AC048BE291E00E94BC0498
:100AF0000E94220580E090E0089584B18C6284B960
:100B000081E58CBD08958EBD0DB407FEFDCF08951F
:100B100097FB072E16F4009407D077FD09D00E94AA
:100B20009C0507FC05D03EF4909581959F4F089554
:100B3000709561957F4F0895AA1BBB1B51E107C0BB
:100B4000AA1FBB1FA617B70710F0A61BB70B881F5D
:100B5000991F5A95A9F780959095BC01CD010895EC
:100B60008F929F92AF92BF92CF92DF92EF92FF92BD
:100B7000CF93DF93EC01688179818A819B81611534
:100B800071058105910521F464E279ED8BE597E02B
:100B90002DE133EF41E050E00E940C0649015A017B
:100BA0009B01AC01A7EAB1E40E942B066B017C011A
:100BB000ACEEB4EFA50194010E943906DC01CB0133
:100BC0008C0D9D1DAE1DBF1DB7FF03C00197A10970
:100BD000B04888839983AA83BB839F77DF91CF91A5
:100BE000FF90EF90DF90CF90BF90AF909F908F904D
:100BF00008950E94B005089580E091E00E94B0053C
:100C00000895A0E0B0E08093000190930101A093CB
:100C10000201B09303010895052E97FB1EF4009482
:100C20000E94230657FD07D00E943E0607FC03D012
:100C30004EF40C94230650954095309521953F4FE6
:100C40004F4F5F4F089590958095709561957F4FB8
:100C50008F4F9F4F08950E946006A59F900DB49FEF
:100C6000900DA49F800D911D11240895B7FF0C9441
:100C70002B060E942B06821B930B0895A1E21A2ECD
:100C8000AA1BBB1BFD010DC0AA1FBB1FEE1FFF1F30
:100C9000A217B307E407F50720F0A21BB30BE40B80
:100CA000F50B661F771F881F991F1A9469F76095C7
:100CB0007095809590959B01AC01BD01CF01089581
:100CC000A29FB001B39FC001A39F700D811D11248D
:100CD000911DB29F700D811D1124911D0895F894EE
:020CE000FFCF44
:100CE200010000000103FFFFFF3C42A581A59942DC
:100CF2003C3C42A58199A5423C536E616B65005014
:100D020069636B6C652062616C6C00706C61792048
:100D1200666F722066756E005069636B6C65204267
:040D2200616C6C0094
:00000001FF
