S0100000626B6F6E736F6C652E73726563B7
S11300000C9434000C9451000C9451000C94510045
S11300100C9451000C9451000C9451000C94510018
S11300200C9451000C9451000C9451000C94510008
S11300300C9451000C9451000C9451000C945100F8
S11300400C9451000C9451000C9451000C945100E8
S11300500C9451000C9451000C9451000C945100D8
S11300600C9451000C94510011241FBECFEFD8E022
S1130070DEBFCDBF11E0A0E0B1E0E0ECFBE002C0E8
S113008005900D92A433B107D9F721E0A4E3B1E0C0
S113009001C01D92A638B207E1F70E94B6040C9481
S11300A0DE050C940000CF93DF9380E090E005C060
S11300B0FC01EA5CFE4F1082019688309105C4F37E
S11300C020E030E017C0D901AA0FBB1FA05CBE4FCF
S11300D0EC91F0E081E090E011960C9002C0880F62
S11300E0991F0A94E2F7EA5CFE4F9081892B808382
S11300F02F5F3F4F8091050190E0281739071CF3CB
S1130100AEE3B1E0EC91F0E081E090E011960C9068
S113011002C0880F991F0A94E2F7EA5CFE4F9081AF
S1130120892B8083C0E0D0E009C0FE01EA5CFE4F69
S113013060818C2F8F5F0E94AE032196C830D10559
S1130140A4F3DF91CF910895CF9380E006C0E82F08
S1130150F0E0EA5CFE4F10828F5F8830C0F380E0ED
S11301601DC090918301282F30E0290F311D2830C4
S113017031059CF4E0918201F0E047E050E0421B3D
S1130180530B21E030E002C0220F331F4A95E2F7FF
S1130190EA5CFE4F9081292B20838F5F833008F324
S11301A0A4E8B1E0EC91F0E011968C9127E030E006
S11301B0281B310981E090E002C0880F991F2A951D
S11301C0E2F7EA5CFE4F9081892B8083C0E009C08E
S11301D0EC2FF0E0EA5CFE4F6081CF5F8C2F0E9431
S11301E0AE03C830A8F3CF910895CF9340E050E018
S11301F018C081E090E0022E02C0880F991F0A9473
S1130200E2F7FA01EA5CFE4F9081892B80832F5F2D
S11302103F4F02C020E030E02830310554F34F5FF7
S11302205F4F48305105B4F3C0E009C0EC2FF0E053
S1130230EA5CFE4F6081CF5F8C2F0E94AE03C83012
S1130240A8F32FE788E391E0215080409040E1F744
S113025000C000000E94A2032FE788E391E0215030
S113026080409040E1F700C00000C0E009C0EC2FDE
S1130270F0E0EA5CFE4F6081CF5F8C2F0E94AE03FA
S1130280C830A8F32FE788E391E0215080409040E4
S1130290E1F700C000000E94A203CF9108950F93DC
S11302A01F93CF93DF938C01EB010E946B05BE017A
S11302B0601B710B6F5F7F4F0E94F704800F911FCB
S11302C0DF91CF911F910F910895CF93DF9367E052
S11302D070E080E090E00E944F01CEE3D1E088839B
S11302E067E070E080E090E00E944F01898320E0A5
S11302F030E014C0F901EE0FFF1FE05CFE4F4081B7
S113030090913E01491308C0F901EE0FFF1FE05C14
S1130310FE4F9181891759F02F5F3F4F409105019E
S113032050E02417350734F381E090E002C080E008
S113033090E0892B61F2DF91CF91089521E019C0FB
S1130340422F50E0FA01EE0FFF1FE05CFE4F3081B8
S113035083130EC0440F551FFA01E05CFE4F318138
S1130360931306C00E94F5000E945A0381E0089589
S11303702F5F30910501231718F380E008950F9340
S11303801F93CF93DF93C091400180913401D0E05B
S1130390C80FD11D2896C770D078DD2324F4219787
S11303A0C86FDF6F2196DC2F2091410180910401F9
S11303B030E0280F311D285F3F4F277030783323FA
S11303C034F421503109286F3F6F2F5F3F4F022FC4
S11303D0122F8C2F922F0E949E018823A9F083E074
S11303E080930501E0E4F1E0808394E091838283CB
S11303F08383848382E085831092340181E0809337
S113040004010E9465012BC040910501842F90E0F6
S113041012C09C0121503109880F991FFC01E05C36
S1130420FE4FD901AA0FBB1FA05CBE4F8D919C91BA
S113043091838083C901181619065CF3E0E4F1E0A6
S1130440C083118380913E01D81309C080913F017C
S1130450081305C04F5F409305010E946501DF91B9
S1130460CF911F910F9108950E946B05877090782A
S1130470992324F40197886F9F6F019608950E9431
S11304806B0563E070E00E94F70481500895CF93F8
S1130490DF93E2E8F1E087E0808384E08183C4E8CD
S11304A0D1E018820E943402898381E08093800124
S11304B00E943F0280938101DF91CF910895809142
S11304C00401823041F480918301882369F08150D2
S11304D08093830109C0813039F480918301853090
S11304E018F48F5F80938301109204010895809122
S11304F08401883030F00E94F5000E945A030E9463
S113050047020895E4E8F1E0908180918001980F1A
S1130510818120918101820F2AF421952093810108
S113052080E006C0883024F021952093810187E083
S1130530992324F491E09093800190E0973039F569
S113054020918301263018F5482F082E000C550BF6
S113055030E042175307DCF0B9016E5F7F4F641738
S11305607507ACF09FEF909380014217530721F475
S11305709093810196E00BC04617570729F491E048
S11305809093810196E003C01092810196E0E4E823
S1130590F1E09083818308950E945F020E948202A9
S11305A00E9477020E94A400089586B18F709091F2
S11305B008018917A1F180930801809134015091B9
S11305C00401309B09C0319B0AC0329B0BC0339994
S11305D026C060E041E008C060E04FEF05C06FEF67
S11305E040E002C061E040E090E09195819591097E
S11305F0242F042E000C330B2817390761F4852FA0
S113060090E0919581959109262F062E000C330BCD
S11306102817390721F040933401609304010895A9
S113062086B181FF05C082FF03C0109204010895C2
S11306309091070189130BC090913501953020F4F6
S11306409F5F9093350105C08093060102C010920C
S113065035018093070180913501853080F08091C8
S1130660060181FD04C081E080930401089582FDA8
S113067004C082E080930401089510920401089557
S113068084B1826084B981E8809380008BE0809398
S113069081001092890010928800089580E890E00B
S11306A09093890080938800089510928900109295
S11306B0880008950E944E032FEF81EE94E02150AC
S11306C080409040E1F700C000000E9455032FEFE6
S11306D080E792E0215080409040E1F700C00000A4
S11306E00E944E032FEF80E792E02150804090401B
S11306F0E1F700C000000E94550308950E944E03D4
S11307002FEF80E792E0215080409040E1F700C055
S113071000000E9455032FEF80E792E021508040B3
S11307209040E1F700C000000E944E032FEF81EEDD
S113073094E0215080409040E1F700C000000E9406
S113074055030895CF93C1E005C060E08C2F0E944B
S11307505204CF5FC930C8F3CF910895893010F4A3
S11307600E94520408959BB19F709BB99BB1807FF6
S1130770982B9BB98BB184608BB985E08A95F1F78E
S113078000008BB18B7F8BB98FE891E00197F1F773
S113079000C000000895CF93C82F8BB18E7F8BB912
S11307A08BB18D7F8BB98C2F0E94B3038C2F8295D4
S11307B0807F0E94B303CF910895CF93C82F8BB14C
S11307C081608BB98BB18D7F8BB98C2F0E94B30361
S11307D08C2F8295807F0E94B303CF9108958AB1B4
S11307E08FEF8AB92FEF89EF90E02150804090403D
S11307F0E1F700C0000080E30E94B3038FE19EE4B0
S11308000197F1F700C0000080E30E94B3038FE872
S113081091E00197F1F700C0000080E30E94B30368
S11308208FE891E00197F1F700C0000080E20E9498
S1130830B3038FE891E00197F1F700C0000088E26C
S11308400E94CB038CE00E94CB0386E00E94CB0382
S113085081E00E94CB038FE39FE10197F1F700C091
S113086000000895CF93DF93EC0180E80E94CB034E
S113087003C021960E94DD0388818111FACFDF91A4
S1130880CF910895CF93DF93EC0180EC0E94CB03CA
S113089003C021960E94DD0388818111FACFDF9184
S11308A0CF910895CF93C62F95B19B7F95B90E94A0
S11308B0F2048C2F0E94F20485B1846085B9CF9133
S11308C00895CF9360E08FE00E94520461E08CE0D1
S11308D00E94520467E08BE00E94520468E08AE0C0
S11308E00E94520460E089E00E945204C1E005C005
S11308F060E08C2F0E945204CF5FC930C8F3CF91BF
S11309000895E0E4F1E083E0808395E091838283BD
S113091094E0938384838583809305010E94650119
S11309200E94F5000E947E030E94A2030E94D50249
S11309300E94BF010E9453008FE39CE90197F1F7E5
S113094000C00000F1CF0E9447020E94F5000E94FF
S11309507E030E94A2030E9410030E94CC028FE334
S11309609CE90197F1F700C00000F3CF17B88FEFAF
S113097088B90E94EC040E9461040E9440030E9412
S1130980EF0389E091E00E9432048FE091E00E943D
S11309904204109204010E941003809104018823F0
S11309A0D1F3813051F489E091E00E9432048BE16B
S11309B091E00E9442040E948104823051F488E252
S11309C091E00E9432048BE191E00E9442040E9473
S11309D0A30480E090E0089584B18C6284B981E539
S11309E08CBD08958EBD0DB407FEFDCF089597FB11
S11309F0072E16F4009407D077FD09D00E940B054A
S1130A0007FC05D03EF4909581959F4F089570950D
S1130A1061957F4F0895AA1BBB1B51E107C0AA1F14
S1130A20BB1FA617B70710F0A61BB70B881F991F8B
S1130A305A95A9F780959095BC01CD0108958F92A0
S1130A409F92AF92BF92CF92DF92EF92FF92CF9399
S1130A50DF93EC01688179818A819B81611571053D
S1130A608105910521F464E279ED8BE597E02DE1B0
S1130A7033EF41E050E00E947B0549015A019B019C
S1130A80AC01A7EAB1E40E949A056B017C01ACEECB
S1130A90B4EFA50194010E94A805DC01CB018C0DE3
S1130AA09D1DAE1DBF1DB7FF03C00197A109B0482E
S1130AB088839983AA83BB839F77DF91CF91FF902B
S1130AC0EF90DF90CF90BF90AF909F908F9008955C
S1130AD00E941F05089580E091E00E941F0508957B
S1130AE0A0E0B0E08093000190930101A093020183
S1130AF0B09303010895052E97FB1EF400940E9401
S1130B00920557FD07D00E94AD0507FC03D04EF4B3
S1130B100C94920550954095309521953F4F4F4F39
S1130B205F4F089590958095709561957F4F8F4F95
S1130B309F4F08950E94CF05A59F900DB49F900DDF
S1130B40A49F800D911D11240895B7FF0C949A055C
S1130B500E949A05821B930B0895A1E21A2EAA1BE8
S1130B60BB1BFD010DC0AA1FBB1FEE1FFF1FA21759
S1130B70B307E407F50720F0A21BB30BE40BF50B56
S1130B80661F771F881F991F1A9469F760957095DF
S1130B90809590959B01AC01BD01CF010895A29F62
S1130BA0B001B39FC001A39F700D811D1124911D3D
S1130BB0B29F700D811D1124911D0895F894FFCFEB
S1130BC0010000000103FFFFFF536E616B650050DD
S1130BD069636B6C652062616C6C00706C61792078
S1130BE0666F722066756E005069636B6C65204297
S1070BF0616C6C00C4
S9030000FC
